:1000000000800020BD010000F9530000BD53000036
:10001000BD530000BD530000BD530000BD530000A0
:10002000BD530000BD530000BD530000F953000054
:10003000F9530000BD530000F9530000AD53000018
:10004000F9530000F9530000F9530000F953000080
:10005000F9530000F9530000F9530000F953000070
:10006000F9530000F9530000F9530000F953000060
:10007000F9530000F9530000F9530000F953000050
:10008000F9530000F9530000F9530000F953000040
:10009000F9530000F9530000F9530000F953000030
:1000A000A54C0000F9530000F9530000F95300007B
:1000B000F9530000F9530000F9530000F953000010
:1000C000F9530000F9530000F9530000F953000000
:1000D000F9530000F9530000F9530000F9530000F0
:1000E000F9530000F9530000F9530000F9530000E0
:1000F000F9530000A1730000F9530000057B0000D4
:10010000F953000081800000F9530000F95300000A
:10011000F9530000F9530000F9530000F9530000AF
:10012000F9530000F9530000F9530000F95300009F
:10013000F9530000F9530000F9530000F95300008F
:10014000F9530000F9530000F9530000F95300007F
:10015000F9530000F9530000F9530000F95300006F
:10016000F9530000F1590000F9530000F953000061
:10017000F9530000F9530000F9530000F95300004F
:10018000F9530000F9530000F9530000F95300003F
:10019000F9530000F9530000F9530000F95300002F
:1001A000F9530000F9530000F9530000F95300001F
:1001B000F9530000F9530000FD660000574B4CF264
:1001C000205210B51A804DF628121A8000BF00BFC9
:1001D00005F016F9524B4FF010621A60514A9A60BE
:1001E000514ADA60A3F53043203B1A6812F480725A
:1001F00004D14E490A604FF4A8521A604C4B1A7849
:10020000110703D51A7842F008021A70494B4A4C7C
:100210004A482A221A704A4A00239918A14203D256
:10022000195899500433F8E7464B474900228B424E
:1002300002D243F8042BFAE74448454900235A58B0
:100240001A500433B3F5DE7FF9D1424B424A802184
:1002500003F8011B9342FBD1404B3C4A1A60404BD0
:100260008A221A70A3F5805324225A70A0221A7091
:100270009A799207FCD59A79D406FCD4394A9379B5
:1002800003F00C03082B374BF9D103221A714022DB
:100290005A719A799006FCD5324A9179314B4906C8
:1002A000FBD5314A314911600221516020221A7078
:1002B0009A7902F00C020C2AFAD12D4B2D4A1A60C1
:1002C0002D4B2E4A1A6000225A60072243F8042C54
:1002D0002B4AC3F80C2D62B605F04AFA134B1B6883
:1002E000DA0705D5274805F009F9274B274A1A6090
:1002F000274B1B785B0609D5234C244A236893427D
:1003000004D1204805F0FAF8002323600AF004FA2B
:1003100005F07CF806F0C4FCFEE700BF0E200540A7
:1003200030800440823F04000100002B14D00340C1
:1003300002D0074000E0074028C9FF1F64DE00002C
:1003400060BDFF1F28C9FF1F90E8FF1F00B8FF1FF7
:100350000000000000E400E05FE400E008ED00E0E1
:100360000050064000400640448004400000030165
:1003700004800440C010050014E000E0FF76010096
:10038000000020204EABE1581CE00340A5C3945A66
:1003900000F00740FFFFFFFFFFFFFFFFFFFFFFFF32
:1003A000FFFFFFFFFFFFFFFFFFFFFFFFFFFFFFFF5D
:1003B000FFFFFFFFFFFFFFFFFFFFFFFFFFFFFFFF4D
:1003C000FFFFFFFFFFFFFFFFFFFFFFFFFFFFFFFF3D
:1003D000FFFFFFFFFFFFFFFFFFFFFFFFFFFFFFFF2D
:1003E000FFFFFFFFFFFFFFFFFFFFFFFFFFFFFFFF1D
:1003F000FFFFFFFFFFFFFFFFFFFFFFFFFFFFFFFF0D
:10040000FFFFFFFFFFFFFFFFFFFFFFFFDEF9FFFF23
:1004100010B5054C237833B9044B13B10448AFF33E
:1004200000800123237010BD28C9FF1F00000000B9
:1004300064DE000008B5064B1BB106480649AFF361
:1004400000800648036813B1054B03B1984708BD07
:100450000000000064DE00002CC9FF1F28C9FF1F38
:100460000000000010B5044600F5836002F046FF6E
:10047000204610BD0F4B03604172026100230372DE
:10048000C36039B11946026942F823100133427A38
:100490009A42F8DC084B1A680AB9186004E05369FC
:1004A0000BB11A46FBE75061002343618380C38090
:1004B000704700BF10BA00003CE6FF1F144B0360FA
:1004C0000423437200F12803036100230372C36015
:1004D0001946026942F823100133427A9342F8DB4D
:1004E0000C4B1A680AB9186004E053690BB11A463C
:1004F000FBE75061002343618380C380064B0360A8
:100500004FF480338361C36103624362704700BF6D
:1005100010BA00003CE6FF1F38D900000F4B036003
:100520000023437203610372C3600D4B1A680AB95A
:10053000186004E053690BB11A46FBE750610023D1
:1005400043618380C380074A026003834383C3619E
:10055000036283628385C3850363704710BA00001A
:100560003CE6FF1F58D900002DE9F04F85B05B4BEA
:100570005B4A126803EB021202F1140A594A12682C
:1005800003EB021303F505730193574B1B78002B04
:100590003DD0564B1B680293554B1B6803930024B8
:1005A0002546A146DFF86CB13AF805301AB2FF2AA9
:1005B00025D0029901FA83F301994A5F134483F32A
:1005C00007034C4A52F8236044F80B603046039905
:1005D00009F07CFE80460BEB04031861464BE7589C
:1005E0003046394609F068FD444908510E46264414
:1005F0004046394609F060FD306109F102090235D3
:100600000434082DD0D13E4BC3F8009038E0374B6E
:100610001B6802933B4BD3F800B03B4B1B68039322
:1006200000252C46A8462E46DFF8E8903AF804301C
:100630001AB2FF2A1CD0029A02FA83F301990A5FC8
:10064000134483F307032B4A52F8237038462A4B8E
:10065000E95809F031FD2949485145F809705E45CE
:1006600004D1039A012A08BFC9F8007008F10108F3
:10067000013602340435102CD8D1214BC3F8008048
:100680001F4B1A68013A214B53F82200164B1B7876
:100690009BB1AAF102021E4C04F110032034002584
:1006A00032F9021FFF291ABF43F8100C186043F8F3
:1006B000105C0433A342F3D10DE0AAF1020200233F
:1006C000134C002532F9021FFF2914BF18511D5188
:1006D0000433202BF6D105B0BDE8F08FE4CBFF1F2B
:1006E00048C9FF1FBCDCFF1FF4D0FF1F50D3FF1F02
:1006F00048BEFF1FC8DCFF1FCCBEFF1F58D3FF1F23
:1007000080DFFF1F78DCFF1FB8DCFF1F98BEFF1FD4
:10071000F0BEFF1F50BEFF1F2DE9F84F8346002497
:100720004FF00008164FDFF864A04FF07C59154BCE
:10073000E558154BE65847F6FF732B833046414684
:1007400009F062FF28B93046394609F07BFF10B93D
:1007500002E0464600E03E463046514609F0B6FD0E
:10076000494609F0ABFC09F09DFFA8620023EB614C
:10077000A5F82CB00434202CD9D1BDE8F88F00BFE7
:10078000A655AC4658DCFF1F50BEFF1F4B243E470A
:1007900008B504380A4B034003D5013B63F0070357
:1007A0000133084A52F8230007490B1F1C3153F844
:1007B000042F10638B42FAD10420FFF7ADFF08BD70
:1007C0000700008074BEFF1F58DCFF1F2DE9F04FAB
:1007D00083B03F4B1B78002B4DD03E4B1B680193E1
:1007E00001983D4B1B68C01A09F018FD3B4B196876
:1007F00009F06CFD01464FF07E5009F05DFC81462A
:10080000002109F001FF20B10022314B1A704FF096
:10081000000900240027DFF8D880DFF8D8B04FF0B7
:100820007C5A48462E4BE15809F050FD01462D4BAD
:10083000E05809F041FC05462B4BE0502B4BE658A5
:10084000394609F0E1FE28B92846414609F0FAFE8A
:1008500010B902E03D4600E045462846594609F0F9
:1008600035FD514609F02AFC09F01CFFB062043442
:10087000202CD6D128E00024DFF870B00027DFF864
:100880007080DFF870904FF07C5A54F80B60154B75
:10089000E5582846394609F0B7FE28B928464146AA
:1008A00009F0D0FE10B902E03D4600E0454628467A
:1008B000494609F00BFD514609F000FC09F0F2FE33
:1008C000B0620434202CE0D103B0BDE8F08F00BF4B
:1008D0004CC9FF1F44E5FF1FF0D0FF1F14BFFF1FCF
:1008E00058D3FF1F50BEFF1FCCBEFF1F58DCFF1F99
:1008F000A655AC464B243E4738B5754B1A68754B28
:1009000053F822402046744B196809F0DFFC054675
:10091000724909F097FE28B92846714909F074FE1A
:1009200010B902E06D4D00E06D4D28464FF08F414B
:1009300009F0CCFC09F090FE6A4B98616A4B1B6889
:10094000012B08BF00242046634B596809F0BEFC08
:100950000546624909F076FE28B92846604909F043
:1009600053FE10B902E05D4D00E05D4D28464FF0AA
:100970008F4109F0ABFC09F06FFE5A4BD86120465D
:10098000554B996809F0A2FC0546544909F05AFEF6
:1009900028B92846524909F037FE10B902E04F4DF8
:1009A00000E04F4D28464FF08F4109F08FFC09F0D1
:1009B00053FE4C4B18622046474BD96809F086FC21
:1009C0000546464909F03EFE28B92846444909F043
:1009D0001BFE10B902E0414D00E0414D28464FF0AA
:1009E0008F4109F073FC09F037FE3E4B58622046F8
:1009F000394B196909F06AFC0546384909F022FEAD
:100A000028B92846364909F0FFFD10B902E0334DF8
:100A100000E0334D28464FF08F4109F057FC09F0B4
:100A20001BFE324B986120462B4B596909F04EFC56
:100A300005462A4909F006FE28B92846284909F042
:100A4000E3FD10B902E0254D00E0254D28464FF0AA
:100A50008F4109F03BFC09F0FFFD244BD861204693
:100A60001D4B996909F032FC05461C4909F0EAFD65
:100A700028B928461A4909F0C7FD10B902E0174DF8
:100A800000E0174D28464FF08F4109F01FFC09F098
:100A9000E3FD164B186220460F4BD96909F016FC8E
:100AA00004460E4909F0CEFD28B920460C4909F04C
:100AB000ABFD10B902E0094C00E0094C20464FF0B4
:100AC0008F4109F003FC09F0C7FD084B586238BD9F
:100AD00084DCFF1F18BFFF1FF0BEFF1F00FEFF4694
:100AE00000FEFFC6CCDEFF1FB8DCFF1F04DFFF1FC8
:100AF00008B50346032805DD064800210A4600F034
:100B0000ADFE08BD0348044A32F91310002200F07C
:100B1000A5FE08BD8CDCFF1FBCBEFF1F2DE9F04108
:100B200015480A2102F0CAFC064608BB0024DFF87B
:100B300048800A27114D14E00F20FFF7D9FF142039
:100B400004F000FE14EA050003D5013860F003004C
:100B50000130FFF7CDFF142004F0F4FD0134052C23
:100B600006D04046394602F0A9FC06460028E3D0EC
:100B70003046BDE8F08100BF68E2FF1F030000803F
:100B800010B582B004468310184A1360002B08DDAC
:100B90000122174B1A70174B1B680193019A164BD1
:100BA0001A601648204003D5013860F00300013078
:100BB000FFF79EFF40F2D240E1B204F0D5FB4FF0C8
:100BC00080420F4B1A60094B1B682BB90D4B33F950
:100BD0001400FFF7A1FD02E02046FFF7D9FD4FF01A
:100BE0008042094B1A6002B010BD00BF2CD0FF1F1D
:100BF000F5D0FF1F44E5FF1F7CDCFF1F03000080D2
:100C000088E100E040BEFF1F08E100E000B583B0CE
:100C1000184B1B68002B29DD174A126800920099B7
:100C2000013B4FF4967202FB03F36433134A1268DC
:100C30008A1A93421AD8104B1B680193019A0F4BE2
:100C40001A600F4A137883F0010313705BB10D4BE8
:100C500018680D4B184003D5013860F003000130CF
:100C6000FFF746FF02E00F20FFF742FF03B05DF8F9
:100C700004FB00BF2CD0FF1F44E5FF1F7CDCFF1FDF
:100C8000F5D0FF1F84DCFF1F030000802DE9F84F23
:100C9000DFF8C0A200238AF80030DFF8BC8288F8B1
:100CA0000030914E3370914C2370DFF87CB258467F
:100CB00000F0E8FE8E4800F0E5FEDFF8709248464E
:100CC00000F098FF8B4F384600F0DCFE8A4800F0B9
:100CD000D9FE8A4D284600F08DFF894800F0E0FDDE
:100CE0009BF801308AF8003099F8013088F800301C
:100CF0007B7833706B782370824B1B68012B40F03C
:100D000084807D4B5A68804B1A60D9F8103041F6C8
:100D1000A4718B4267DD7D490968002963D10123F5
:100D20007A490B6000207A4908607A490B70042ADE
:100D30006BD8DFE802F0030F1B355000764A1368CA
:100D400001331360754A126893425ED10022724BE0
:100D50001A605AE0704A1368013B1360002B54DAA2
:100D60006E4B1A68013A6C4B1A604EE06A4A13687F
:100D70006B4909680B441360684A1268934207D1B3
:100D80004FF0FF31664A1160023B634A13603CE05A
:100D9000002B3ADA0123624A13605F4A136034E0A1
:100DA0005D4A13685E4909680B4413605B4A126828
:100DB000934207D14FF0FF31594A11600B44564A14
:100DC000136022E0002B20DA0122554B1A6000222A
:100DD000514B1A6019E0514B1868013805F00AFEB2
:100DE0004D4B186011E0632B0FDC484B1B6863B15F
:100DF000474B1B684B4A1268934203DA0133444A5B
:100E0000136002E00022414B1A60474B5B784BB9FC
:100E1000374B5B7833B9454B5B781BB9364B5B7806
:100E2000002B3DD0344B5A68414B1A603E4B5B68F7
:100E300040490B6033490968012925D092B93B4AE2
:100E400052683D4909689A1804D44B1E9342A8BFC2
:100E5000134600E0002339490B60254B5A68384B94
:100E60001A6017E0012A15D1344A1360204B5A68E2
:100E70002E4B5B681A44304B1B6892FBF3F103FB6B
:100E800011232F490B6005E02C4A1360184B5A6858
:100E90002B4B1A60244800F0D1FE01221D4B1A7022
:100EA000114B1B7813B9114B1B78BBB1114D6B68FB
:100EB000124A526813442433224A1360224C236896
:100EC0005B682046214904229847204605F006FD2C
:100ED000284600F0B3FE01220E4B1A701C4800F0A9
:100EE0005FFFBDE8F88F00BFC8DEFF1FC9D9FF1F35
:100EF000F8D0FF1F00DAFF1F88DFFF1FA8D3FF1FF6
:100F00008CDCFF1FB8DCFF1FA4D3FF1F84DFFF1F93
:100F100084C9FF1F10BFFF1F78DCFF1F80DFFF1F8A
:100F20004CBEFF1FC8BEFF1F38D7FF1F8CC9FF1F55
:100F300088C9FF1FDCD9FF1F94BEFF1F48C9FF1FD0
:100F4000BCDCFF1F50D3FF1F70E6FF1F30C6000040
:100F500078D3FF1F74DFFF1F88DCFF1F10B586B03A
:100F6000FFF794FE714B1B786BB1FFF7FDFA704BE6
:100F70001B7843B16F4B1B680293029A6E4B1A6049
:100F800001226E4B1A706E4B1B78CBB16D4C2368EF
:100F90005B6820466C490A229847204605F09EFC73
:100FA0006A4B196801316A4A1268920091FBF2F0AB
:100FB00002FB10101860FFF7E3FD01225B4B1A7073
:100FC0005F4B5B78002B39D0624A1368013362496A
:100FD0000B4003D5013B63F0010301331360012291
:100FE000524B1A70574C23685B6820465B490922B4
:100FF0009847204605F072FC564B1B68012B0DD11B
:101000000023574A13704A4A13700093554805212C
:1010100046224FF4005300F08BFC0FE0524B19783E
:101020004F4A11709A78424B1A70002300934D4832
:10103000032146224FF4005300F07AFC3B4B1B780F
:10104000002B2FD0434B1B68012B09D1474B1B684A
:10105000002B51DD0023464A1370464A136014E00A
:101060000124434B1C70334B1B680393039A424B80
:101070001A600920214604F083FA0B20214604F06F
:101080004DFA0920214604F049FA4FF080443B4BC9
:101090001C60FFF79BFBFFF72FFC394B1C60002205
:1010A000224B1A70254B1B78ABB1224B1B68049363
:1010B000049A214B1B68D31A324A12689A4202D80A
:1010C00000221E4B1A704FF080442C4B1C60FFF71F
:1010D0007DFB2B4B1C60FFF799FD164B1B6805939E
:1010E000059A254B1B68D31A274A12689A421AD2CE
:1010F0001F4B1B782BB916E01E4B1B68002BC4D16D
:10110000AEE701221B4B1A600B20002104F006FA07
:101110000920002104F002FA0920002104F030FA2D
:101120000022134B1A7006B010BD00BF10BFFF1F86
:101130007CDFFF1F44E5FF1FF0D0FF1F4CC9FF1FDE
:1011400078D3FF1F70E6FF1F38C6000084DCFF1F46
:1011500048BFFF1FB8DCFF1F0100008044C600002D
:10116000F4D0FF1F88DFFF1FE4CBFF1F78DCFF1FD9
:10117000C8D9FF1F44C9FF1F78DFFF1F88E100E0C7
:1011800008E100E0C4BEFF1FECBEFF1FFFFFFFFF32
:1011900008B5453808F03CFC02460B4606A1D1E9EB
:1011A000000107F033FA0022054B08F097FC08F025
:1011B0002FFF08BDAFF30080000000A08FF3F03FC9
:1011C00000807B40AFF300802DE9F04184B0022025
:1011D000002104F0D5F90820002104F0D1F90920FC
:1011E000002104F0CDF90B20012104F0C9F90620FB
:1011F000012104F0C5F90520012104F0C1F9042002
:10120000012104F0BDF90320012104F0B9F9994846
:10121000322105F053F90D2003F084FF964B974AD5
:101220001A60974A5A60974A9A60974ADA60974AD2
:101230001A61974A5A61974A9A61974ADA61974DBB
:1012400000242046FFF7A4FF45F8040F0134802C4A
:10125000F7D1934B1B7843F001029249096811F4CE
:10126000805F02D0934240F0DD808D490A7043F0E8
:1012700005038C49096811F4805F02D09A4240F05E
:10128000DB80874A137040F2D24004F057F8864B57
:101290001860864B184003D5013860F00300013018
:1012A000FFF726FCFFF73AFC0146814C204601F08F
:1012B000F5FAA27C7F4B1A606378002B40F0C68061
:1012C000CDE07B4CA2787C4B1A70E0687B4B1860B9
:1012D00008F0A4FF01464FF07E5009F0ABF8784BC0
:1012E0001860227C774B1A602278774B1A7022792B
:1012F000764B1A70E278764B1A70627C754B1A60E6
:101300005D48031F1C304FF0804153F8042F1162D9
:101310008342FAD170494FF480438B616F4A9361E5
:10132000CB61D3610B6213624B6253626C4B47F625
:1013300070529A61DA6100221A625A626948062381
:101340004385C3854FF480320263838601F0A0FB9E
:10135000654B1B683BB9544B1A68644B33F9120058
:10136000FFF7DAF90CE0504B1868FFF711FA012289
:101370005F4B1A705F4B1B680393039A5E4B1A60B6
:10138000DFF89881012588F800505C4F3D70494E88
:101390003168002400945A4846224FF4005300F06C
:1013A000C7FA31680094404646224FF4005300F0DB
:1013B000BFFA31680095534837224FF4005300F0CC
:1013C000B7FA00945048302146224FF4005300F001
:1013D000AFFA00943846032146224FF4005300F040
:1013E000A7FA3B4B1B786BB1484C2046682100F0B4
:1013F0009DFA00952046242137224FF4005300F037
:1014000097FA09E02F4B1968012300933F483722D0
:101410004FF4005300F08CFA052003F0B1FE05F004
:10142000B3FA23E04FF4A270394908604FF400701A
:1014300001F57F61086018E74FF4A271354A116029
:101440004FF4007102F57F6211601AE70322324BFC
:101450001A60154B1A689210234B1A6031E701226B
:101460002D4B1A600022104B1A602AE704B0BDE829
:10147000F08100BF0082FF1F58DCFF1F00D6FF1F56
:1014800034D6FF1F68D6FF1F9CD6FF1FD0D6FF1F84
:1014900004D7FF1F50C9FF1FB0D0FF1FC4DCFF1FC0
:1014A0006CE6FF1F3C80044084DCFF1F03000080CB
:1014B000E4CBFF1F94BEFF1F7CDFFF1FC4BEFF1FD6
:1014C00014BFFF1FB8BEFF1FF4D0FF1FC0DCFF1FFB
:1014D000FCD9FF1F70BEFF1FCCDEFF1F04DFFF1F04
:1014E0003CDFFF1F90D9FF1F2CD0FF1F40BEFF1F06
:1014F000F5D0FF1F44E5FF1F7CDCFF1F88DFFF1FC7
:1015000038D7FF1F8CC9FF1F00DAFF1FA8D3FF1FAA
:1015100018B0044014B0044048BFFF1FF8D0FF1FAC
:101520002DE9F04F8BB003F0C5FE062400949548DA
:1015300003210422052300F085F99348092100F0D6
:10154000D1F99248092100F0CDF99148072100F026
:10155000C9F99048072100F0C5F98F48214600F0ED
:10156000C1F98E48082100F0BDF98D4808210A22F2
:101570004FF47A7300F0E6FB8A4C204601F0B6F98E
:101580002046092101F0BAF92046282101F0CCF9C2
:10159000854B1A6809920999844A11601A68089261
:1015A0000899834A11601A6807920799814A116065
:1015B0001A6806920699804A11601A680592059980
:1015C0007E4A11601A68049204997D4A11601B6872
:1015D0000393039A7B4B1A60DFF858B25846FEF724
:1015E0009DFFDFF854A25046FEF798FF7648FEF7BD
:1015F00095FF7648FEF792FF7548FEF78FFF754816
:10160000FEF78CFF7448FEF789FF7448FEF786FFEB
:10161000734F3846FEF752FF724E3046FEF74EFFCC
:10162000DFF818924846FEF749FF6F4D2846012122
:1016300005F11802FEF71EFF6C4B2B6000242C777F
:101640002C8509236B854FF00303AB855323EB8572
:101650004AF6C0232B63A623AB86DFF8E48140461D
:10166000012108F11802FEF705FF614BC8F80030B0
:10167000404601F047FB5F48C0F800B04760047285
:101680004472C46005F00CF85B48C0F800A04760E5
:1016900004724FF0010A80F809A0C46005F000F858
:1016A0005648494B0360476004724FF0020B80F8C4
:1016B00009B0C46004F0F4FF5148444B0360476034
:1016C00004724FF003034372C46004F0E9FF4D4815
:1016D0003F4B0360466004724472C46004F0E0FF54
:1016E00049483C4B03604660047280F809A0C4601E
:1016F00004F0D6FF4548384B03604660047280F81A
:1017000009B0C46004F0CCFF4148344B036046602C
:1017100004724FF003034372C46004F0C1FF3D48FC
:101720000760C0F8049004724472C46004F0B8FF0B
:1017300039480660C0F80490047280F809A0C460BB
:1017400004F0AEFF3548C0F8009045600472447262
:10175000C46004F0A5FF32480560C0F8048004723C
:101760004472C46004F09CFF2E4C20462E4900F0C9
:1017700083FB20462D492E4A08F0B4FF0BB0BDE88C
:10178000F08F00BF8CDCFF1F38D7FF1FF8D0FF1F82
:1017900000DAFF1F88DFFF1F8CC9FF1FA8D3FF1FC0
:1017A00078D3FF1FE4D0FF1F44E5FF1F80DCFF1F3D
:1017B000ECD0FF1FC4DCFF1F54D3FF1F78DFFF1FD7
:1017C0007CDCFF1FF0D0FF1F68D6FF1F9CD6FF1FD9
:1017D000D0D6FF1F04D7FF1F50C9FF1FB0D0FF1F77
:1017E000CCDEFF1F04DFFF1F90D9FF1F28D90000A8
:1017F00048D900001CD0FF1FCCD9FF1F70D0FF1F9D
:1018000080D0FF1F30D0FF1F40D0FF1F50D0FF1FE0
:1018100060D0FF1F94D3FF1FA8DCFF1F90D0FF1FD5
:10182000A0D0FF1FE4CBFF1F74C6000065040000BA
:101830003CBEFF1F00D6FF1F34D6FF1F3CDFFF1F3B
:10184000E0D9FF1F30B40025056145610576C16010
:1018500082604360029B036030BC704770B50446F1
:101860000D46037E13B10AB9616170BD2369AB42B5
:1018700015D0EEB2207B06F0080103F04FFE207A6F
:1018800006F0040103F04AFE207906F0020103F09D
:1018900045FE207806F0010103F040FE256170BD91
:1018A00010B504460D4B1B786BB1012303764369D9
:1018B0000BB9036943612046094BB3F900100122BB
:1018C000FFF7CCFF10BD00230376416921B11A4612
:1018D000FFF7C4FF0023636110BD00BFE2E1FF1FFB
:1018E000E4E1FF1F10B483B0002202704270426036
:1018F0008260C26002764276C261026242628263A4
:10190000C263C0F8442280F84822C0F84C22064C3A
:1019100024680194019CC0F8504280F8542241612F
:1019200003B05DF8044B704744E5FF1F4162704708
:101930002DE9F04104460E461746069A003218BFBC
:10194000012242760A29CCBF01220022027600251C
:101950004560C0F84452C5618560027EE2B14E1E0A
:1019600093FBF6F6B600456A304608F05BFC80460D
:10197000284608F057FC0146404608F09DFB08F059
:101980006BFEA062701B08F04DFC01464FF07E50CC
:1019900008F050FD206313E0184608F043FC0546AC
:1019A000701E08F03FFC06462846314608F042FD0E
:1019B00008F052FEA0623046294608F03BFD206345
:1019C000A06A08F02FFC0546384608F02BFC0A49AF
:1019D00008F030FD0146284608F078FC08F03CFE8F
:1019E000606328464FF07A5108F070FC08F034FE2E
:1019F000E062BDE8F08100BF0000C84230B4C26BB5
:101A000000EB8203856B1C6C2C1B196421448163E1
:101A10000132C263437E4BB10A4B1A4003D5013AEF
:101A200062F007020132C263C81009E0064B13409E
:101A3000002B03DA013B63F07F030133C363C8115A
:101A400030BC7047070000807F00008010B4C3697D
:101A5000C268416BCC18A24202DD806A184404E0DF
:101A6000591A8A4207DA806A181A984205D0002A61
:101A7000D8BF184602E0184600E018465DF8044B4F
:101A8000704700BF30B583B00446554B1D78002326
:101A90004370007D03F074FB014620612046FFF790
:101AA000ADFFE060237E0BB18000E0602046FFF7D1
:101AB000CDFFA0604B4B1B680093009AD4F85032C6
:101AC000D31AB3F57A7F05D994F8543213B1237839
:101AD000002B70D015B123781BB965E02378002B5B
:101AE00062D194F8483233B9012384F84832E3686C
:101AF000C4F84C3226E0E368D4F84C229A1A82EA01
:101B0000E271A1EBE271E26A91425ADD94F840225F
:101B1000002A5AD155E0344A127812B90121324ACA
:101B20001170012231490A7084F85422C4F84C32F1
:101B30002C4B1B680193019BC4F8503202E0002338
:101B400084F8543294F84032D3B1D4F844329842F5
:101B50003FD094F854329BB1E369C31A002B03DDE4
:101B60000C22234B1A800BE0002B09DA0322204BB6
:101B70001A8005E00F221E4B1A80002384F84032A1
:101B8000E36998422AD094F840323BBBE061C4F844
:101B9000440208F047FB216B08F098FB08F05CFD5D
:101BA00060600123637019E0012384F84032002350
:101BB00084F8483212E000230C4A137084F854323F
:101BC00088E72378002BBAD1BCE72278002AA2D17B
:101BD000A7E794F85432002BCCD1D1E703B030BD45
:101BE000E0E1FF1F44E5FF1FE1E1FF1FE2E1FF1F0E
:101BF000E4E1FF1F10B5044600234370007D03F0AD
:101C0000BFFA014620612046FFF7F8FEE060237E20
:101C10000BB18000E0602046FFF718FFA060E36989
:101C200098420AD0E06108F0FDFA216B08F04EFB03
:101C300008F012FD60600123637010BD38B50546E1
:101C4000374C23685B68204636490822984720466F
:101C5000697804F08FFE204604F040FE23685B683C
:101C600020463149092298472046696804F082FEDF
:101C7000204604F033FE23685B6820462B49062289
:101C800098472046A96804F075FE204604F026FE19
:101C900023685B6820462649072298472046E96961
:101CA00004F068FE204604F019FE23685B682046B5
:101CB00020490A2298472046E96804F05BFE204646
:101CC00004F00CFE23685B6820461B4907229847F6
:101CD0002046296904F04EFE204604F0FFFD204610
:101CE00004F0FCFD23685B682046144908229847ED
:101CF0002046A96B04F03EFE204604F0EFFD236869
:101D00005B6820460E490C2298472046E96B04F098
:101D100031FE204604F0E2FD204604F0DFFD38BD30
:101D200070E6FF1F8CCA000098CA0000A4CA000019
:101D3000ACCA0000B4CA0000C0CA0000C8CA000093
:101D4000D4CA000030B482B000250561054D2D686D
:101D50000195019D456141608260C36002B030BC65
:101D6000704700BF44E5FF1F21B983694BB1013BB8
:101D7000836104E08369FF2B0ED80133836183699B
:101D800013B9002303617047FF2B08D901230361B6
:101D90004FF4807383617047002BF7D1F1E77047F0
:101DA00030B589B00446007903F0DCFB05462046D7
:101DB0002946FFF7D9FF003518BF01252A4B1D70B2
:101DC0002A4B1B68019301996369C91AE2688A4228
:101DD00034D22269002A31D1254A1278002A2DD125
:101DE00024E02369A3B9224B1B78002B32D0204B6F
:101DF0001B7853B100231E4A13701E4A13701B4BED
:101E00001B680593059B636102E0002363702370E8
:101E1000164B1A68069206996269891A22691B682C
:101E20000793079B02FB113262611BE00123637081
:101E30000E4B1B680293029B6361E9E70B4A126831
:101E40000392039AD31AA2689A42CAD32369002B39
:101E5000CDD0DDE701232370044B1B680493049B62
:101E60006361D5E709B030BDE0E1FF1F44E5FF1F26
:101E7000E1E1FF1FE2E1FF1F2DE9F0410446884642
:101E80000025057045708570C57005718560322329
:101E9000C36026230374302343748574C574124FC2
:101EA0004FF4807614303946324602F093FF04F541
:101EB0008A70B919324602F08DFF04F50570294683
:101EC000324608F091FF04F5457007F5007132467F
:101ED00002F080FF04F5836001F002FAC4F8148474
:101EE0002046BDE8F08100BF3CCB000010B400F1FB
:101EF000120300F589740DE0B3F8022123F8022FD4
:101F00008B42F9D1A14204D100F2122300F2123423
:101F10000CE00B4603F11001EEE7B3F8022123F8C1
:101F2000022F8B42F9D1A14203D00B4603F11001DD
:101F3000F3E7102383745DF8044B704770B588B0E5
:101F40000546AE4C2046D5F8141401F0E1FB684676
:101F50002146D5F81424132301F050FB9DF80430DA
:101F600085F81C34029BC5F820349DF80C3085F8A8
:101F7000243408AB53F8134D58689968C5F82544C4
:101F8000C5F82904C5F82D141B7B85F83134079B4F
:101F9000C5F83434684601F0B1F905F58364D5F825
:101FA00018345B68204696493C229847204604F046
:101FB00095FCD5F818345B68204692493C22984736
:101FC000204604F08BFCD5F818345B6820468E4917
:101FD0003D229847204604F081FCD5F818345B6810
:101FE00020468A493D229847204604F077FCD5F8E0
:101FF00018345B68204686493C229847204604F006
:102000006DFCD5F81834834E5B68204631460022BB
:102010009847204604F062FCD5F818345B682046E7
:102020007D493E229847204604F058FCD5F81834E4
:102030005B68204679493E229847204604F04EFCD2
:10204000D5F818345B68204675493E2298472046EB
:1020500004F044FCD5F818345B68204671493E22F0
:102060009847204604F03AFCD5F818345B682046BF
:102070006D493D229847204604F030FCD5F81834CD
:102080005B682046314600229847204604F026FC33
:10209000D5F818345B6820466449282298472046C2
:1020A00004F01CFCD5F818345B68204660493322E4
:1020B0009847204604F012FCD5F818345B68204697
:1020C0005C492F229847204604F008FCD5F81834C4
:1020D0005B682046584933229847204604F0FEFBAF
:1020E000D5F818345B682046544919229847204691
:1020F00004F0F4FBD5F818345B6820463146002222
:102100009847204604F0EAFBD5F818345B6820466F
:102110004B4915229847204604F0E0FBD5F81834C7
:102120005B682046474915229847204604F0D6FBB5
:10213000D5F818345B682046434919229847204651
:1021400004F0CCFBD5F818345B6820463F491922CF
:102150009847204604F0C2FBD5F818345B68204647
:102160003B491A229847204604F0B8FBD5F81834AA
:102170005B68204637491A229847204604F0AEFB98
:10218000D5F818345B68204633491D22984720460D
:1021900004F0A4FBD5F818345B6820462F491922B7
:1021A0009847204604F09AFBD5F818345B6820461F
:1021B0002B4919229847204604F090FBD5F8183493
:1021C0005B682046274918229847204604F086FB82
:1021D000D5F818345B6820462349182298472046D2
:1021E00004F07CFBD5F818345B6820461F4919229F
:1021F0009847204604F072FB3AE000BF68E2FF1FF8
:102200003CCE00007CCE0000BCCE0000FCCE000026
:102210003CCF0000B8CE00007CCF0000BCCF000057
:10222000FCCF00003CD000007CD00000BCD00000FF
:10223000E8D000001CD100004CD1000080D100008B
:102240009CD10000B4D10000CCD10000E8D1000046
:1022500004D2000020D200003CD200005CD200007A
:1022600078D2000094D20000B0D20000CCD200009E
:10227000D5F818345B6820468249182298472046D2
:1022800004F02CFBD5F818345B6820467E491322F5
:102290009847204604F022FBD5F818345B682046A6
:1022A0007A491D229847204604F018FBD5F81834C7
:1022B0005B682046764926229847204604F00EFBAC
:1022C000D5F818345B6820463146002298472046EE
:1022D00004F004FBD5F818345B6820466D492C22C5
:1022E0009847204604F0FAFAD5F818345B6820467F
:1022F000694937229847204604F0F0FAD5F8183497
:102300005B682046654928229847204604F0E6FA93
:10231000D5F818345B682046614937229847204633
:1023200004F0DCFAD5F818345B6820463146002208
:102330009847204604F0D2FAD5F818345B68204656
:10234000584924229847204604F0C8FAD5F8183492
:102350005B68204654492B229847204604F0BEFA79
:10236000D5F818345B68204650492F2298472046FC
:1023700004F0B4FAD5F818345B6820464C491822AA
:102380009847204604F0AAFAD5F818345B6820462E
:10239000484918229847204604F0A0FAD5F8183486
:1023A0005B682046444919229847204604F096FA73
:1023B000D5F818345B6820464049182298472046D3
:1023C00004F08CFAD5F818345B6820463C49262284
:1023D0009847204604F082FAD5F818345B68204606
:1023E000384929229847204604F078FAD5F818345D
:1023F0005B682046344932229847204604F06EFA42
:10240000D5F818345B682046304934229847204676
:1024100004F064FAD5F818345B6820462C494F2242
:102420009847204604F05AFAD5F818345B682046DD
:10243000284916229847204604F050FAD5F8183457
:102440005B682046244917229847204604F046FA44
:10245000D5F818345B68204620492D22984720463D
:1024600004F03CFAD5F818345B6820461C49372242
:102470009847204604F032FA204600F067FF08B083
:1024800070BD00BFE8D2000004D3000018D30000E4
:1024900038D3000060D3000090D30000C8D3000000
:1024A000F4D300002CD4000054D4000080D40000E9
:1024B000B0D40000CCD40000E8D4000004D5000063
:1024C00020D5000048D5000074D50000A8D5000034
:1024D000E0D5000030D6000048D6000060D60000ED
:1024E00090D600002DE9F04FB5B004460026867462
:1024F000C6746846314604F0DFFA04A8AC49D4F843
:102500001424012301F07AF89DF8143084F81C3467
:10251000069BC4F820349DF81C3084F8243434AB76
:1025200053F8B35D58689968C4F82554C4F8290471
:10253000C4F82D141B7B84F831340B9BC4F834345D
:1025400004A800F0DBFE3546B0469A4FDFF880A2C3
:10255000DFF8809283E1584600F05AFEC1B25B2951
:1025600003D1A37C0F2B33D988E17B2903D1E37CF2
:102570000F2B5FD982E1212900F06D81012D2CD133
:102580002C2910D194F812B0684604F081FB06EBB8
:10259000CB0B04EB4B0BABF814006846864904F0F8
:1025A0009FFA01365BE15D2912D1A57C684604F0F3
:1025B0006FFB06EBC50504EB4505A88268467E491E
:1025C00004F08EFAA37C0133A3740026354646E15D
:1025D000684604F0CBFA012541E1032D2FD12C29C7
:1025E00011D194F813B0684604F052FB08EBCB0B02
:1025F00004EB4B0BABF8140268466F4904F070FA19
:1026000008F101082BE17D2914D1E57C684604F02E
:102610003FFB08EBC50504EB4505A5F81402684629
:10262000654904F05DFAE37C0133E3744FF0000880
:10263000454614E1684604F099FA03250FE1022D9E
:1026400040F00D810A2940F006813B685B683846FE
:102650005146072298473846694604F019F93B6805
:102660005B683846494601229847384604F036F9F7
:102670000CA8524904F020FA68460CA904F0A0FA0C
:1026800005460CA804F0CCF915B101236370DCE019
:1026900010A84B4904F010FA684610A904F090FA0B
:1026A000054610A804F0BCF90DB30123A3706846D9
:1026B000202104F0BBFA021E40F3C78014A869462B
:1026C00004F0DEFA14A804F0E3FAE06014A804F0C1
:1026D000A7F9E368042B02DC0523E360B5E0B3F55A
:1026E000967F40F3B2804FF49673E360ADE018A894
:1026F000344904F0E1F9684618A904F061FA054686
:1027000018A804F08DF9EDB16846202104F08EFA86
:10271000021E40F39A801CA8694604F0B1FA1CA876
:1027200004F0B6FA20741CA804F07AF9237C0B2B71
:1027300002D80C23237488E0482B40F2868048237B
:10274000237482E020A8204904F0B6F9684620A945
:1027500004F036FA054620A804F062F9C5B1012359
:10276000E3706846202104F061FA021E6DDD24A8A2
:10277000694604F085FA24A804F08AFA607424A853
:1027800004F04EF9637CB62B5FD9B62363745CE02A
:1027900028A80E4904F090F9684628A904F010FA18
:1027A000054628A804F03CF9B5B1012323704CE09C
:1027B00068E2FF1F70E6FF1FB8CE0000D0D6000011
:1027C000D8D60000E0D60000E8D60000F0D6000021
:1027D000C8D6000098D100002CA82C4904F06CF950
:1027E00068462CA904F0ECF905462CA804F018F969
:1027F000C5B1012323716846202104F017FA021E97
:1028000023DD30A8694604F03BFA30A804F040FA12
:10281000A06030A804F004F9A368012B15D90023A7
:10282000A36012E03B685B68384619490F2298475D
:102830003846694604F02CF83B685B683846154911
:1028400001229847384604F049F86846124904F0D6
:1028500047F9002503E0684604F088F9022504F5ED
:10286000836B584600F05EFD00287FF474AE584636
:1028700000F06CFD684604F0D3F803E0012D7FF40E
:10288000ACAEA5E635B0BDE8F08F00BFF8D60000CD
:1028900000D7000010D70000B8CE000030B589B0D6
:1028A000044611B9FFF722FB19E00E4D6846294690
:1028B0000D4A012300F0A2FE2846D4F8141400F0BB
:1028C0001BFF18B12046FFF70DFE05E02046FFF77D
:1028D00035FB2046FFF706FE684600F00FFD09B005
:1028E00030BD00BF68E2FF1F14D700000022026065
:1028F0000A2181808271C271704700BF10B582B019
:102900000446C8B2E0710023A37102F02BFE08B1A7
:102910000323A371034B1B680193019B236002B047
:1029200010BD00BF44E5FF1F818070472DE9F84FBF
:102930000446002103F090FE8046002800F0A680A7
:10294000237F1BB903F046FEBDE8F88F031D00F599
:10295000827E734580F092804FF6FF7A4FF0000937
:102960004FF0040CE28B002A55D1227F022A17D1A6
:10297000A28DE28342B14FF0030121774FF4803200
:102980002262C4F8249076E0E28DE28384F81CC0D1
:10299000216BA1F58031D20091FBF2F262626AE014
:1029A000032A0BD184F81CC0E28DE283216BA1F5D0
:1029B000803191FBF2F2D21062625CE0042A09D10C
:1029C0004FF005012177A4F81EA0226B2262C4F803
:1029D000249020E0052A02D1A4F81EA01BE0062ABC
:1029E0000BD1002222779E4548D91A605A609A601E
:1029F000DA6010339E45F8D840E0012A0BD14FF041
:102A000002022277628DE2834FF4803191FBF2F271
:102A1000D21062622FE01E685D689F68D968626AA2
:102A2000206A02EB000B3BFB06F093443BFB16F6DF
:102A3000C0EA064693443BFB05F093443BFB15F587
:102A4000C0EA054593443BFB07F093443BFB17F773
:102A5000C0EA074093443BFB01F75A44226232FB31
:102A600011F2C7EA02471E605D609860DF60E28B8A
:102A7000013AE28310339E453FF674AF204641464B
:102A8000002203F0C7FD404603F0A4FDBDE8F88F27
:102A900072B600230362038DC38323B1012303773E
:102AA0000023436209E002230377438DC3834FF47D
:102AB000803292FBF3F3DB10436262B6704700BFD3
:102AC00010B5044603F0B6FE204610BD08B5034815
:102AD0000349044A07F006FE08BD00BFE8E1FF1FF6
:102AE000C12A00003CBEFF1F38B5064D064C074802
:102AF0002946224607F0F6FD05482946224607F0FA
:102B0000F1FD38BDC12A00003CBEFF1FF0E1FF1FF0
:102B1000F8E1FF1F08B503480349044A07F0E2FD46
:102B200008BD00BF00E2FF1FC12A00003CBEFF1F1E
:102B300008B503480349044A07F0D4FD08BD00BFA7
:102B400008E2FF1FC12A00003CBEFF1F2DE9F84329
:102B50008146804600263746F7B94846314603F09D
:102B60007BFD0746002853D0D8F81810B1F5803FF8
:102B70004ED0031D00F582741A6831FB02F031FB60
:102B800012F200F30F0002F30F02C0EA024243F810
:102B9000042B9C42F0D83BE04846314603F050FD00
:102BA0008446A8B33B1D051DD8F8184007F5827E62
:102BB000B4F5803F16D107F10C040C3054F8082C02
:102BC00050F8081C92FA11F244F8082C5A6850F890
:102BD000041C92FA11F25A600833083408309E45FA
:102BE000ECD812E055F8042B34FB02F034FB12F25F
:102BF00000F30F0002F30F02C0EA0242196892FAD2
:102C000011F143F8041B9E45ECD8604603F0E2FC4A
:102C1000013608F10408042E9ED13FB148463946DA
:102C2000002203F0F7FC384603F0D4FCBDE8F8833B
:102C300008B5002103F004FD0246A0B172B60A4BAC
:102C4000186810B91A6062B608BD084B1B681BB93A
:102C5000064B1A6062B608BD03490B60034B1A604D
:102C600062B603F0B7FC08BD20E2FF1F10E2FF1FB1
:102C700038B51C4B1A68126819791B4B19701B4B1D
:102C80009A4206D2A3F5807404F5807304F50074AB
:102C900002E0174B03F58074164A106898B1021DC4
:102CA00047F6FF7532F9021B2944091123F8021B6C
:102CB0009C42F7D803F08EFC0F4B1A680D490A604E
:102CC00000221A6005E040F2FF7223F8022B9C42BA
:102CD000FBD80A4B1B781BB14FF08042084B1A609F
:102CE00038BD00BF14E2FF1F1F800040C8B5FF1FA2
:102CF000C8B4FF1F20E2FF1F10E2FF1F1CE2FF1FEE
:102D000008E200E070B54F48012103F035FD4E4B5D
:102D10001A6842F480521A60802203F5032303F6F6
:102D2000F5731A700024494E01253480284602F0BC
:102D300009FD0834A4B223B2B3F5006FF5D1444BBA
:102D40001B6813F4800F16D0424B1A6848F6A27322
:102D50001A409A420FD1404B1A6840F23F439A42C0
:102D600009D13E4B1B68012B05D13D4B1A6840F23F
:102D700001139A4217D0364B1A6842F480021A6047
:102D80000122A3F59033303B1A6040F23F42083BEA
:102D90001A60043B48F6A3721A60324A1A6040F285
:102DA000011210331A60274C23681A6800222E493A
:102DB00019602368022119715A7101209871D87124
:102DC00019725A729A72DA721A736FF0010159739A
:102DD0004FF0FF319973D97319691C4919611A753C
:102DE0005A75D98A4FF48071D9821A765A769A76B2
:102DF000DA76D88BD983998B06219983237903F1CD
:102E0000804303F504331A70B0221A7003F060FC9B
:102E1000164B18702279164B1A70227902F11001A4
:102E20001448154B43F8210053119B0003F16043F4
:102E300003F5614302F01F02012101FA02F21A6058
:102E400070BD00BF14E2FF1F2C80044000C00C4086
:102E50003C80044000600340046003400C60034079
:102E600010600340A28F0100C8B4FF1F1CE2FF1FC7
:102E70001B800040712C000000B8FF1F08B50348FC
:102E80000349044A07F02EFC08BD00BF14E2FF1FEF
:102E9000C12A00003CBEFF1F08B503480349044A8D
:102EA00007F020FC08BD00BF24E2FF1FC12A00007C
:102EB0003CBEFF1F08B503480349044A07F012FC53
:102EC00008BD00BF2CE2FF1FC12A00003CBEFF1F4F
:102ED00008B503480349044A07F004FC08BD00BFD5
:102EE00034E2FF1FC12A00003CBEFF1F08B50348A3
:102EF0000349044A07F0F6FB08BD00BF3CE2FF1F90
:102F0000C12A00003CBEFF1F08B503480349044A1C
:102F100007F0E8FB08BD00BF44E2FF1FC12A000024
:102F20003CBEFF1F2DE9F8430446B0F91830002BD2
:102F300000F0FD8003F0F2FA0746002800F0F78069
:102F4000061DB4F92C30072B00F2D980DFE803F01E
:102F5000046A58922BAF7EC100F5827E33464FF64D
:102F6000FF757448E269D10DC2F3CF12B4F918C0ED
:102F7000C2EB050830F91190013130F9111002FB54
:102F800001F109FB0812121402FB0CF2D21323F810
:102F9000022BA16AE2698A1848BF22F00042E2616E
:102FA0007345DFD1ABE0236B1BB903F013FBBDE826
:102FB000F88300F5827E33464FF6FF75E269D00D47
:102FC000216BC2F3CF12B4F918C031F91080C2EBF3
:102FD00005090130C0B231F9101002FB01F109FB03
:102FE0000812121402FB0CF2D21323F8022BA16A6E
:102FF000E2690A4422F00042E2617345DED17EE0DC
:10300000821D8023E16911F0804F218B18BF494256
:1030100022F8021CA06AE1690144E1610232013B2D
:10302000F0D16CE000F582703346E26942F3CF32B2
:10303000B4F9181001FB02F2D21323F8022BA16A93
:10304000E2690A44E2618342EFD158E000F5827000
:103050003346E26942F3CF32B4F9181001FB02F2B1
:10306000D21323F8022BA16AE269521AE261834269
:10307000EFD144E000F582703246E369002B258BE6
:10308000BCBF6D42ADB2990013F0804F18BF4942EA
:10309000490C2BB203FB01F1C91322F8021BA16AF0
:1030A000E36903EB4103E3618242E6D127E0821D3D
:1030B0008023E069216A8842218B38BF494222F887
:1030C000021CA06AE1690144E1610232013BF0D1D6
:1030D00015E000F582783546A26AE369934205D28D
:1030E000B4F91810484203F091FCA084A38C25F891
:1030F000023BA26AE3691344E3614545ECD1B4F9AC
:103100002E3063B107F58271B6F90030B4F92E2084
:10311000134403F30F0326F8023BB142F4D82046D0
:103120003946002203F076FA384603F053FABDE838
:10313000F88300BF18D70000184B1A6842F4805279
:103140001A60174B174A1A60174ADA6002F1804278
:103150001A61164A1A60164B1B7813F0010F07BF4D
:103160004FF41072134B4FF40072134B1A60104B54
:103170001B7813F0020F4FF400720CBF0F4B104B73
:103180001A600B4B1B7813F0040F07BF4FF410723B
:103190000C4B4FF400720C4B1A6070473C8004409B
:1031A00000C0024001401F000110003800001F80D5
:1031B0006CE6FF1F18B0044008C004401CB0044077
:1031C0000CC0044014B0044004C0044010B582B0E8
:1031D00002AB03F8011D0268546819460122A0479A
:1031E00002B010BD10B50446C3691BB901230371B9
:1031F000002010BD00201871E06992B201F056F96C
:10320000E3691B7913B101232371002010BD00BFB6
:1032100000B583B0C06960B10DF10701012200F073
:10322000ABFE01280CBF9DF807004FF6FF7000B2FF
:1032300001E04FF0FF3003B05DF804FB30B583B020
:103240000446C06978B10DF10701012200F094FE37
:1032500001280AD19DF80750E069C168013900F0E2
:1032600045FF284603E0002001E04FF0FF3003B0A7
:1032700030BD00BF08B5C06908B100F06FFF08BDE0
:103280002DE9F04104460E469046002303714FF4A9
:103290007A7282600373114B0360242007F064FA92
:1032A000E061B8B13546074606F1200E3E46286873
:1032B0006968AA68EB680FC6103537467545F5D1C1
:1032C0002868306004F10D0041460C2208F03CF9FA
:1032D000002363762046BDE8F08100BF68D9000076
:1032E000002202714FF47A71816002730249016019
:1032F000C2614273704700BF68D90000014B036090
:10330000704700BF68D90000C3690BB1D868704727
:103310004FF0FF30704700BFC3690BB19869704729
:103320000020704738B50446C36963B1FFF7F4FF66
:1033300005462046FFF7E8FF281A47F6FF73984234
:1033400028BF184638BD002038BD00BF10B5044660
:10335000C06930B100F02EFFE06907F00DFA0023DC
:10336000E36110BD10B58AB004460A4600238DF80B
:103370000830094901918DF80A3001A8214601233E
:1033800000F0CAFF041C18BF012414B101A800F00A
:1033900011FF20460AB010BD88D9000008B52AB137
:1033A00001F068F8003018BF012008BD012008BDF9
:1033B000F0B40C68035D2F2B1CD101341AE00025FA
:1033C00063B11EE00135013407F8013F0C2D05D033
:1033D00016F8013F2F2B01D0002BF3D100235355BA
:1033E000035D2F2B08BF01340C60005D003018BF57
:1033F00001200BE00619035D2F2B08BF0025EDD03F
:10340000DDE70134137017460125E1E7F0BC704792
:103410002DE9F04F99B082460F4691469846002319
:103420008DF81C30244A06928DF81E308DF84030FD
:103430000F928DF8423001930C4606AE4FF0010B0F
:1034400003E00FAC234634461E46504601A902AAAB
:10345000FFF7AEFF054680F00102204602A9D2B276
:103460004346C84730B9BC421CD0204600F0A2FEFB
:1034700000201EE07DB13046214602AA5B4600F0E6
:103480004BFF0546BC4211D0204600F093FE002DB4
:10349000D8D100200DE0BC4206D0204600F08AFEC4
:1034A000012006E0002004E0012002E00028C8D14D
:1034B000002019B0BDE8F08F88D9000038B5044667
:1034C0000A46012100F076FAA8B1251D28462146BA
:1034D000012201F099FA28B928462146002201F07C
:1034E00093FA50B104F12C00294600F01BFD003086
:1034F00018BF012038BD002038BD002038BD00BFF6
:103500002DE9F04F99B081469346019300238DF841
:103510001C30394A06928DF81E308DF840300F92DB
:103520008DF8423006A8043100F0FCFC5C460FAE7A
:1035300006AD4FF02F084FF0000A2CE023782F2B18
:1035400001D1013427E03F1BFFB20C2F28BF0C270D
:1035500002A821463A4607F0F7FF18AB3B4403F8B0
:1035600058AC304600F026FE3046294602AA012318
:1035700000F0D2FE40B9002389F804301E4AC9F891
:10358000002089F8063032E03C44284600F012FE64
:103590002B4635461E462046414607F073FE074639
:1035A0000028CBD1CBEB0404019B1C602B7989F85C
:1035B0000430114BC9F800306B7989F80530AB79CC
:1035C00089F80630AB68C9F80830EB68C9F80C30E8
:1035D0002B69C9F810302B7D89F81430AB69C9F814
:1035E0001830EB69C9F81C302B6AC9F820304846FE
:1035F00019B0BDE8F08F00BF88D90000F0B5A7B0C2
:10360000044615461F4602A801ABFFF779FF019952
:103610006E18695C19BB9DF80C308DF85430344B32
:1036200014939DF80D308DF855309DF80E308DF8BF
:103630005630049B1693059B1793069B18939DF891
:103640001C308DF86430089B1A93099B1B930A9BCE
:103650001C93204614A9274AFFF712FE45E00021DB
:103660008DF83010224B0B938DF832109DF80E30F0
:103670001BB92046FFF734FE37E00BA802A93246FB
:103680003B4600F049FE18B92046FFF729FE2CE022
:1036900002A800F08FFD17F0060F03D00BA81199B8
:1036A00000F024FD9DF830308DF87830104B1D93DC
:1036B0009DF831308DF879309DF832308DF87A30C0
:1036C0000D9B1F930E9B20930F9B21939DF84030E1
:1036D0008DF88830119B2393129B2493139B259381
:1036E00020461DA93246FFF7CBFD204627B0F0BD8E
:1036F00088D9000014D7000008B500F12C03084653
:103700001946024A0023FFF783FE08BD6533000017
:1037100008B500F12C0308461946024A0023FFF7BA
:1037200077FE08BD9D330000064B00229A700221EF
:10373000596083F8242083F830200349D96283F844
:103740003220704768E2FF1F88D90000084B1A68D2
:1037500042F480621A604FF00042DA62FF225A633C
:103760001A46D36A002BFCDA014B986BC0B2704743
:1037700000C00240064B1A6842F480621A604FF0A3
:103780000042DA6258631A46D36A002BFCDA7047AB
:1037900000C0024008B505281ED8DFE800F0030885
:1037A0000D1115194FF038420E4B1A6017E04FF00B
:1037B00038420C4B1A6012E00B4A0A4B1A600EE0BA
:1037C0000A4A084B1A600AE0094A064B1A6006E0EA
:1037D000084A044B1A6002E0074A024B1A60FFF7DE
:1037E000ABFC08BDBCE2FF1F00000138011001382E
:1037F00003200038032001380650003808B500784F
:10380000012101F08BFE114B1B78F3B100220F4B0D
:103810001A700F4B1B78C3B113F0010F03D00D4B7F
:103820001A680D4B1A600A4B1B7813F0020F03D075
:10383000084B5A68094B1A60054B1B7813F0040FAC
:1038400003D0044B9A68064B1A6008BDC0E2FF1F04
:1038500064E2FF1F58E2FF1F00E100E004E100E026
:1038600008E100E010B5244B1B78002B3ED101226B
:10387000214B1A70214B1A68214B1B78002B28D042
:1038800072B61F4B1B7813F0010F07D01D4B1C683D
:103890001D49096821401D4C21601960184B1B7897
:1038A00013F0020F07D01A4B1C68174949682140D2
:1038B000164C61601960124B1B7813F0040F07D08F
:1038C000144B1C68104989682140104CA160196094
:1038D00062B6114BDB68934208D00F4B0F49196059
:1038E000DA6042F080421A610D4A1A6000780021C5
:1038F00001F014FE10BD00BFC0E2FF1FBCE2FF1FBD
:1039000064E2FF1F80E100E04CE2FF1F58E2FF1F6E
:1039100084E100E088E100E000C0024001401F00B7
:1039200000001F8070B582B00E460B4B1B680093E1
:10393000009C094DA4B2FFF709FFFF2807D02B68B0
:103940000193019B9BB21B1BB342F4DB01E00120FE
:1039500000E0002002B070BD44E5FF1FF8B5054649
:103960000F4616464FF49671FFF7DCFF47F0400014
:10397000FFF700FF182426FA04F0C0B2FFF7FAFEA2
:10398000083C14F1080FF6D127B1082F0CBF87208F
:10399000FF2000E09520FFF7EDFE0024FFF7D6FEA4
:1039A000687010F0800F03D00134B4F5807FF5D13A
:1039B000F8BD00BF2DE9F04F87B004460191002308
:1039C000837002707D4B1B680393039FBFB2104648
:1039D000012101F0A3FD2078012101F0D1FD207823
:1039E000012101F09BFD764B1A6842F480521A6067
:1039F0000620FFF7CFFE734B1A68734B1B78002B22
:103A000028D072B6704B1B7813F0010F07D06F4BA4
:103A100018686F49096801406E48016019606A4B77
:103A20001B7813F0020F07D06B4B18686849496880
:103A30000140684841601960634B1B7813F0040F24
:103A400007D0664B18686249896801406148816007
:103A5000196062B6624BDB68934200F0A080604B55
:103A600060491960DA6042F080421A615E4A1A6069
:103A700095E02846FFF77EFE013E16F0FF06F8D1DE
:103A8000514B1B78C3B113F0010F03D0514B1A688F
:103A9000564B1A604C4B1B7813F0020F03D04D4B62
:103AA0005A68534B1A60484B1B7813F0040F03D02D
:103AB000484B9A684F4B1A602046FFF7D3FE4FF0F1
:103AC0000008DFF8F89008E0D9F800300493049B70
:103AD000DB1B9BB2B3F5FA6F5DD8204641464246E8
:103AE000FFF73CFF054660700128EDD12046082114
:103AF0004FF4D572FFF732FF10F0040F04D001230A
:103B0000A3704FF0000A0FE04FF00408FFF71EFE0D
:103B1000607008F1FF3313F0FF08F7D1AA283AD1FB
:103B20000223A3704FF0804A4FF037094FF000088E
:103B3000DFF888B008E0DBF800300593059BDB1B5D
:103B40009BB2B3F5FA6F26D8204649464246FFF7A6
:103B500005FF204629215246FFF700FF607000282C
:103B6000E9D1A378022B0ED120463A210022FFF79B
:103B7000F5FE80B9FFF7EAFD00F0C000C02811D1C2
:103B80000323A3700EE02046FFF738FE0198FFF7ED
:103B900001FE2E460DE02046FFF730FE09E00A2622
:103BA000FF2566E7FFF7D2FDFFF7D0FDFFF7CEFD5B
:103BB000E9E7304607B0BDE8F08F00BF44E5FF1FDE
:103BC0003C800440BCE2FF1F64E2FF1F80E100E094
:103BD0004CE2FF1F58E2FF1F84E100E088E100E0B3
:103BE00000C0024001401F0000001F8000E100E013
:103BF00004E100E008E100E070B582B004460E4B3D
:103C00001B680093009D0C4EADB207E03368019332
:103C1000019B9BB25B1BB3F5967F09DCFFF796FD1A
:103C20006070FF28F2D0FE2814BF0020012000E0C1
:103C3000002002B070BD00BF44E5FF1FF8B5044688
:103C40000D4616468378032B18BF4D02FFF70AFE78
:103C5000204611212A46FFF781FE002847D1204641
:103C6000FFF7CAFF002842D0234B244A1A60244A97
:103C70005A635A635A6306F5FD7E764513D2B01C2B
:103C800006F5FE771946CB6A13F0F00FFBD04A63B6
:103C90008B6BC3F3072500F8025C00F8013C02308F
:103CA000B842F0D100E0B64606F5007676450DD96B
:103CB0007146114AD36A13F0F00FFBD0936BC3F334
:103CC000072008704B7002318E42F3D80A4B0B4A22
:103CD0001A600B4A5A631A46D36A13F0F00FFBD0EE
:103CE000054B9B6B2046FFF789FD0120F8BD204660
:103CF000FFF784FD0020F8BD00C0024000041F80D3
:103D0000FFFF0090F8B506461E4B186840F480602F
:103D100018604FF00040D8625963114602F50077F1
:103D20000446DA6A002A08DBFBE7DA6A002A0DDBC0
:103D3000FBE7D36A002B15DBFBE708460A781D6812
:103D400045F480651D60DC625A63EEE742781D68C9
:103D500045F480651D60DC625A630231B942E0D1EE
:103D6000084AE6E7FF20FFF705FDFF20FFF702FD09
:103D7000FFF7ECFC707000F01F00052814BF002056
:103D80000120F8BD00C0024070B5044616460D463D
:103D900029B38378032B18BF4D02FFF763FD20463C
:103DA00018212A46FFF7DAFDC8B92046FE2132461F
:103DB000FFF7A8FF98B120464FF41671FFF7B2FD48
:103DC00068B120460D210022FFF7C8FD38B9FFF782
:103DD000BDFC20B92046FFF711FD012070BD204633
:103DE000FFF70CFD002070BD014A024B1A607047BE
:103DF00001100138BCE2FF1F10B50446006A012122
:103E000004F1080200F076FD034650B1E3693BB9C6
:103E1000A368E361637963F07F036371012300E0CA
:103E20000123184610BD00BF70B50646FFF7E4FF3A
:103E30000346E0B1336AB268023A197C02FA01F52E
:103E40005A6915441C794CB1013D281900F088FCD1
:103E5000034660B1013C14F0FF04F6D1336A1B7CC9
:103E60004FF400729A40B3691344B36101231846BA
:103E700070BD00BF10B50446006900F04DFC20B1D4
:103E8000207D034B03EB401010BD002010BD00BF90
:103E9000D0E2FF1F2DE9F00100232022CA54013394
:103EA0000B2BFBD10138002507264FF008084FF0F7
:103EB0000A0C1B4F21E02E2C01D03A4606E00A2EB8
:103EC00024D04546664618E0A34221D012F8013FAF
:103ED000002BF9D1AE421DD3A4F12103DBB25D2B3F
:103EE0001AD86B1CDBB20D44A4F16102D2B2192ABC
:103EF0009CBF203CE4B22C701D4610F8014F002CF2
:103F0000D9D10878203818BF012006E0002004E04D
:103F1000002002E0002000E00020BDE8F001704732
:103F20008FD9000038B504460D4683790BBB91F854
:103F30002020102A07D1022383710023C3614B8CF8
:103F40005B0183610CE0202A14D103238371496A49
:103F5000C161284604F1180200F058FC034648B13C
:103F60002562012363710022A260E2602261227552
:103F700000E00023184638BD2DE9F04F83B0044619
:103F8000884601928379002B69D0437913F0010FA1
:103F900068D08269C368D11A0198884201D98BB26E
:103FA0000193019B002B57D01D46DFF8F8A0DFF8E6
:103FB000F890DFF8F8B0E368C3F30807A279022AA3
:103FC00004D1226A516A01EB53211BE0206A067971
:103FD000013E06EA5326F6B25FB956B913B9E36952
:103FE000A36006E0224652F8081F00F0D9FB002823
:103FF0003BD0226AA368023B117C03FA01F15269AB
:1040000011443144C7F500739D42C6BF1E46B6B287
:104010002E46637913F0400F02D1B6F5007F36D1FA
:10402000D9F8003099422AD131E0B0440DE057442C
:10403000B819874209D03B46424613F8011B02F8E3
:10404000011B8342F9D1C71BB844E3683344E360E2
:10405000AD1BADB2002DAED1019B98B20DE04FF675
:10406000FF700AE04FF6FF7007E04FF6FF7004E0C4
:104070004FF6FF7001E04FF6FF7000B20EE0DBF884
:1040800000004246FFF7DAFD0028CED1F0E70846EF
:10409000002100F041FB0028C9D1ECE703B0BDE8E6
:1040A000F08F00BFD0E2FF1F4CBFFF1FCCE2FF1F0D
:1040B00030B583B004468379012B0FD9C5680DF163
:1040C00007010122FFF758FF012809D1E3681F33D8
:1040D000E36005F4F070044B184402E0002000E0B7
:1040E000002003B030BD00BFD0E2FF1FF8B504468A
:1040F0000F4683797BB382698A422BD3022B02D18C
:10410000E160012327E021B900238360C36001231C
:1041100021E0C368026A157C09355A1EEA4001395C
:1041200021FA05F5AA4200D813B9E369A3600AE0B1
:10413000AD1A08E0206AA168324600F031FB013D6B
:10414000034610B907E004F10806002DF2D1E7603C
:10415000012300E000231846F8BD00BF38B504462F
:10416000807918B394F90530002B1BDA2046012121
:10417000FFF780FE0546C0B1A379012B9CBFA36960
:10418000C361A38B4383E38B8382094B1B682BB1F1
:10419000183005F1160198472B8B6B82637903F079
:1041A0007F03637100F08CFA38BD002038BD00BF7A
:1041B000C4E2FF1F10B50446FFF7D0FF034610B15D
:1041C0000023A3710123184610BD00BFF0B583B0D2
:1041D00004460D468379012B4ED1427902F002024A
:1041E00002F0FF01002A49D08269AA4248D3002A7E
:1041F00047D0C6682946FFF779FF0346002840D01C
:104200004DB9206AE16900F0D9FB0346002838D097
:104210000023E3611DE0206AA16801AA00F0C0FA52
:10422000A8B1206A019990F820704FF6F872164BE9
:10423000102F08BF134699420BD200F0BFFB30B1DC
:10424000206AA1686FF0704200F00CFB08B90023EF
:1042500017E0A561637963F07F0363712046FFF780
:104260007DFF034668B12046B54234BF294631463A
:10427000FFF73CFF034604E0002302E00B4600E0AA
:104280000023184603B0F0BDF8FFFF0F38B5044611
:1042900015461F4B03EB4113DA7A12F0110F02D0CF
:1042A00015F0420F2CD121751A4A12682261998AA1
:1042B0000904E1615A8B1143E161D87A10F01800CA
:1042C00004D1DB69A3610123A3710AE0102819D18D
:1042D000206A04F1180200F099FA0346A8B10423F9
:1042E000A37105F00F0363710023A360E36015F071
:1042F000400F09D020461946FFF768FF034604E047
:10430000002302E0002300E00123184638BD00BF6F
:10431000D0E2FF1F4CBFFF1F2DE9F04F85B00546CF
:104320000C469A468679002E7FD1104601A9FFF7E8
:10433000B1FD00287BD0236A2B620027A760E760CD
:10434000DFF8FC904FF0010825E0C1F3431B204645
:10435000FFF7AEFE014600286AD003780BB1E52BCB
:1043600009D12FB985F814B0D9F800302B61474630
:104370000B7883B913E001A80B2206F0A1FC50B919
:104380000AF03003302B53D0284659465246FFF7E7
:104390007DFF06464CE0E168A3699942D5D30AF057
:1043A0001203122B44D137B128460121FFF762FDD9
:1043B000044660B93CE0A379022B39D02046FFF7D0
:1043C00033FD0646002833D000232B751A4C2046B7
:1043D0000021202206F008FD01AB03CB20606160C4
:1043E0001A889B782281A372144B1B682BB104F1AD
:1043F000100004F10E01984707E0212323742823BD
:1044000063740023A3730823E373238A63822383E3
:10441000E389E38200F054F9064648B12846297D35
:104420005246FFF733FF064602E0002600E006464C
:10443000304605B0BDE8F08FD0E2FF1FC4E2FF1F99
:104440004CBFFF1F10B504460021FFF7BFFE034617
:1044500068B120460121FFF70DFD38B1E522027059
:104460000023A37100F02CF9034600E00023184656
:1044700010BD00BF10B58AB004460A4600238DF86F
:104480000830094901918DF80A3001A8214602231C
:10449000FFF742FF034618B101A8FFF7D3FF034619
:1044A00018460AB010BD00BF88D900002DE9F04FB2
:1044B00085B00446884601928379012B40F0BE8086
:1044C000437913F0020F00F0B98013F0040F08D005
:1044D0008169C3688B4204D0FFF708FE002800F012
:1044E000AD80019A002A00F08C801646DFF8B0A15A
:1044F000DFF8B0B1206AE76890F8049009F1FF395D
:1045000009EA5729C7F3080719F0FF0929D1002F35
:1045100040F0AA80A16851B9E36933B92046FFF79A
:104520006BFC002840F08E8088E0A3608AE003AA3C
:1045300000F036F9002800F0A880039B226A92F868
:1045400020004FF6F871524A102808BF0A469342DD
:1045500005D32046FFF750FC002873D16EE0A3601E
:1045600070E0C7F50075ADB2AE4238BF3546A368FE
:10457000023B027C9340426913449944B5F5007FA5
:1045800012D1DBF800304B4504BF4FF0FF33CBF8BE
:104590000030404B186849464246FFF7F5FB0028BB
:1045A0004CD008F5007824E07FB9E268A3699A420C
:1045B0000BD300F085F8002840D0CBF80090364AA5
:1045C000137843F00103137005E04846012100F021
:1045D000A3F8002832D057447819874209D03B46C7
:1045E000424612F8011B03F8011B8342F9D1C71B95
:1045F000B844761BB6B2E3681D44E560002E7FF434
:1046000079AFE368A269934205D9A361637963F046
:104610007F03637108E0214B1B682BB1019B1BB129
:10462000637963F07F036371637913F0080F03D03C
:104630002046FFF793FD08B1019826E0012323717E
:10464000002022E0B6F5007F34BF35464FF40075F8
:10465000236AA268023A197C02FA01F95B6999445B
:10466000B5F5007FA1D18CE7C7F50075ADB2AE42BC
:1046700038BF3546A368023B027C03FA02F943695E
:104680009944B5F5007FA0D17BE705B0BDE8F08F78
:10469000F8FFFF0FCCE2FF1FD0E4FF1FC4E2FF1FB3
:1046A000D0E2FF1F4CBFFF1F00B583B002AB03F881
:1046B000011D19460122FFF7F9FE03B05DF804FB66
:1046C00008B5104B1B78D3B10F4B18680F4B196806
:1046D0000F4AFFF759FB034690B10E4B196849B1D9
:1046E000094B18680A4AFFF74FFB034640B1002206
:1046F000084B1A600022034B1A70012300E00123CB
:10470000184608BDD0E4FF1FCCE2FF1F4CBFFF1FBF
:10471000D0E2FF1FC8E2FF1F38B504460D460C4B20
:104720001B6883420DD0FFF7CBFF034670B1094BE6
:1047300018682146084AFFF781FA034630B1044B56
:104740001C60064B1A7815431D700123184638BDAE
:104750004CBFFF1FCCE2FF1FD0E2FF1FD0E4FF1FC2
:1047600010B50446FFF7ACFF034680B109494B1E64
:1047700001F2FF11002203F8012F8B42FBD1064BFF
:104780001C60064B1A7842F001021A700123184689
:1047900010BD00BFD0E2FF1F4CBFFF1FD0E4FF1FC2
:1047A00070B504460D461646C36801338B4225D3C7
:1047B000C36990F82020102A0CBF080AC8091844C1
:1047C000104B1B68984204D00021FFF7A5FF034659
:1047D000A8B194F82030102B06D1EDB20A4B33F873
:1047E0001530336001230AE005F07F05064B53F8CE
:1047F000253023F070433360012300E00023184686
:1048000070BD00BF4CBFFF1FD0E2FF1F2DE9F0437A
:1048100083B0044602AE46F8041D914600254FF4CD
:1048200000780F4F204601993246FFF7B9FF034643
:1048300088B1237C08FA03F31D4494F820104FF646
:10484000F873102914BF39461946019B8B42E9D3EE
:10485000C9F800500123184603B0BDE8F08300BF3B
:10486000F8FFFF0FF8B504460D461746012931D968
:10487000C368013399422FD8C36990F82020102AC9
:104880000CBF0E0ACE091E44164B1B689E4205D073
:1048900030460021FFF740FF034600B394F8203074
:1048A000102B04D1EDB2104B23F8157004E005F085
:1048B0007F050D4B43F825700C4B1A7842F001022E
:1048C0001A70237E012B09D9A3681E44084B1E6071
:1048D000012304E0002302E0002300E00123184646
:1048E000F8BD00BF4CBFFF1FD0E2FF1FD0E4FF1F89
:1048F000C8E2FF1F2DE9F04F85B006468A460092B8
:1049000017681FB101370023019305E007680129EB
:1049100014BF002301230193F36803F10108DBB105
:104920003C4600254FF00209CB46A0453CBF4C4613
:104930005F463046214603AAFFF732FF60B1039B72
:104940000BB1671C03E0631CDB1B534506D001352C
:104950000134F368AB42E8D800232AE03046214610
:104960006FF07042FFF77EFF034648B921E0651EF5
:10497000304629462246FFF775FF034618B918E06E
:10498000BC42F4D803E0BD4201D92C46EFE7009BBE
:10499000196829B130463A46FFF764FF034640B133
:1049A000009B1F60019B1BB101373760012300E0B2
:1049B0000123184605B0BDE8F08F00BFF0B583B005
:1049C00005460C460223036000260E4F284621466A
:1049D00001AAFFF7E5FE80B1284621463246FFF7DF
:1049E00041FF50B1019C95F820104FF6F873102943
:1049F00018BF3B469C42E9D301E0002000E00120C3
:104A000003B0F0BDF8FFFF0FF8B50546494B19603C
:104A10001446DAB1042A7FD800200146FFF77CFE55
:104A20000346002800F08380434B03EB041494F802
:104A3000AE3104F5D47413F07F036FD1D4F81210A3
:104A4000632974D9D4F80E400CB970E000242046D4
:104A50000021FFF761FE0346002868D0364BB3F80B
:104A60000B30B3F5007F5BD1334B1B7C002B5ED04A
:104A7000314AD289002A55D02F4A517B002953D080
:104A80002B76297100232B74012003E05A1C2A7411
:104A9000072B4BD82B7C1E4600FA03F29142F5D12E
:104AA000254BD98A01B9596AA960234BDA89224476
:104AB000EA61B3F8110087B268841B7C03FB012311
:104AC0006B627A0102F2FF1203EB62236B611A4AF6
:104AD000B2F813200AB9184A126AE31A134423FAE7
:104AE00006F6EE6040F6F4739E4204D80C2385F877
:104AF000203001231BE04FF6F4739E4204D81023AC
:104B000085F82030012312E00B4BDB6A6B62202317
:104B100085F8203001230AE0002308E0002306E0A6
:104B2000002304E0002302E00B4600E000231846C7
:104B3000F8BD00BFCCE2FF1FD0E2FF1F0B4B1B787C
:104B400013B90B4B1B7873B10A4B1B78202B03D97D
:104B50000123037100207047581C064A1070064A52
:104B6000D154012070470020704700BF3AE5FF1F75
:104B7000FCE4FF1F3BE5FF1FD8E4FF1F704700BFA9
:104B8000024B1878024B1B78C01A704739E5FF1F9B
:104B900038E5FF1F074B1B78074A12789A4205D960
:104BA000591C044A1170054AD05C70474FF0FF3021
:104BB000704700BF38E5FF1F39E5FF1F00E5FF1F05
:104BC000054B1B78054A12789A4286BF044AD05C8E
:104BD0004FF0FF30704700BF38E5FF1F39E5FF1F7A
:104BE00000E5FF1F08B5104BDB7813F0200F0CD148
:104BF000122000F039FC0D4B1B689BB100210C4AC0
:104C000011700C4A1078984708BD0B4A137801338D
:104C1000DBB21370012B02D8084B1B7813B912209A
:104C200000F022FC08BD00BF00600640D4E4FF1F76
:104C300038E5FF1F39E5FF1F24E5FF1FFCE4FF1FD8
:104C400038B514460D4B1B7813B90D4B1B7893B137
:104C50000C4B1D78C5F12103A34202D2012202713F
:104C60001C4609482844224600F0B4F82544054B68
:104C70001D70204638BD002038BD00BF3AE5FF1F3B
:104C8000FCE4FF1F3BE5FF1FD8E4FF1F0022027179
:104C90004FF47A7181600273014A0260704700BF6D
:104CA000A8D9000008B53D4BDB78DBB213F0100F3C
:104CB00006D01021394AD17013F0400F03D108BD3E
:104CC00013F0400F2CD013F0040F1BD00023344AF4
:104CD0001370344A1370344B1B681BB19847314B27
:104CE0001B782BB901222F4B1A7000222F4B1A7000
:104CF0002A4BD0229A702D4A12781A7101222C4B1D
:104D00001A7009E00122264B1A700022294B1A70F2
:104D1000224BC0229A701B790222204BDA7008BD08
:104D20001E4A927812F0100F1CD013F0010F14D10C
:104D30001F4B1B781B4A12789A4207D9591C1C4AF0
:104D400011701A4AD25C154B1A7102E00022134B03
:104D50001A71D022114B9A701BE0104BC0229A702E
:104D60001B7916E00022144B1A70122013490322FB
:104D700000F046FC094B1B79DAB20E4B1B781F2B57
:104D800007D80749097821B1581C0A4908700C490D
:104D9000CA540222014BDA7008BD00BF0060064011
:104DA000D1E4FF1F3BE5FF1F20E5FF1FD8E4FF1FF5
:104DB0003CE5FF1F39E5FF1F24E5FF1FE54B000021
:104DC00000E5FF1F08B50248FFF760FF08BD00BF00
:104DD00028E5FF1F844641EA000313F003036DD169
:104DE000403A41D351F8043B40F8043B51F8043BAE
:104DF00040F8043B51F8043B40F8043B51F8043BB5
:104E000040F8043B51F8043B40F8043B51F8043BA4
:104E100040F8043B51F8043B40F8043B51F8043B94
:104E200040F8043B51F8043B40F8043B51F8043B84
:104E300040F8043B51F8043B40F8043B51F8043B74
:104E400040F8043B51F8043B40F8043B51F8043B64
:104E500040F8043B51F8043B40F8043B51F8043B54
:104E600040F8043B403ABDD2303211D351F8043BF4
:104E700040F8043B51F8043B40F8043B51F8043B34
:104E800040F8043B51F8043B40F8043B103AEDD2A3
:104E90000C3205D351F8043B40F8043B043AF9D2F4
:104EA000043208D0D2071CBF11F8013B00F8013BC7
:104EB00001D30B8803806046704700BF082A13D3D4
:104EC0008B078DD010F003038AD0C3F10403D21AEC
:104ED000DB071CBF11F8013B00F8013B80D331F820
:104EE000023B20F8023B7BE7043AD9D3013A11F8A0
:104EF000013B00F8013BF9D20B7803704B7843700B
:104F00008B7883706046704730B4394A39491368EA
:104F100013F0800FFBD10B6813F0800FF7D172B63E
:104F2000354B1B78002B5FD0344B1C6804331D6855
:104F3000043318680433196804331A6804331B688F
:104F40002C44204401440A441A44C2F34E0242F461
:104F500000422B4B1A602C331C6804331D68043349
:104F600018680433196804331A6804331B682C4426
:104F7000204401440A441A44C2F34E0242F400425F
:104F8000204B1A6003F108131C6804331D680433B6
:104F900018680433196804331A6804331B682C44F6
:104FA000204401440A441A44C2F34E0242F400422F
:104FB000154B1A602C331C6804331D6804331868C1
:104FC0000433196804331A6804331B682C442044E2
:104FD00001440A441A44C2F34E0242F400420B4B0D
:104FE0001A600022044B1A7062B630BC704700BFD2
:104FF00024B0034024B00B403EE5FF1F38B003400F
:105000002CB0034030B003402CB00B4030B00B400C
:1050100060223A4B1A70E12201331A70384B1B7828
:10502000082B10D1012203F1804303F56C331A6081
:10503000132334490B6001F5FF2101F2FC710A6072
:10504000314A13601FE00A2B0DD139222F4B1A6011
:1050500013232C490B6001F5FF2101F2FC710A605A
:10506000294A13600FE00C2B0CBF35223D22274B41
:105070001A60122323490B6001F5FF2101F2FC7134
:105080000A60214A1360224B1B7833B10123214A65
:10509000136002F50022136005E000231D4A13602F
:1050A00002F5002213601C4B1B78012B06D88023CD
:1050B0001A4A136002F5002213601AE0042B06D886
:1050C0008423164A136002F50022136011E0082BB6
:1050D00006D88523114A136002F50022136008E008
:1050E000102B94BF862387230C4A136002F50022FD
:1050F000136001220A4B1A70704700BF004007403E
:1051000050BFFF1F0CB003400CB00B4008B0034071
:1051100041E5FF1F20B0034051BFFF1F24B00340F3
:105120003EE5FF1F08B50C2804D9102828BF102021
:10513000102307E00A2804D8092834BF08230A23CB
:1051400000E00C23DAB2101A0949087009490978FD
:1051500099420CD0074B1A70074B1B782BB10023D8
:10516000064A136002F500221360FFF751FF08BDE5
:105170003DE5FF1F50BFFF1F3EE5FF1F24B003406A
:105180002DE9F843282873D83C4B1E5CFF2E72D0C3
:105190003B4B1B780BB1FFF7B7FE16F0800F29D100
:1051A00072B6384C384D4FF0010726602F7062B64A
:1051B00072B6236813F0800F04D12B7813F0FF0F21
:1051C0000FD1F2E7314B186800222F4B1A7062B6EC
:1051D0002F4B1B781841BDE8F8832B7813F0FF0F95
:1051E000E3D062B601F094FD72B6236813F0800F2D
:1051F000F3D0E7E772B606F040095FFA89F9254F68
:10520000254C06F03F06254D4FF00108B9F1000F7F
:1052100004D03B6823F010033B6003E03B6843F09D
:1052200010033B60266085F8008062B672B6236882
:1052300013F0800F04D12B7813F0FF0F0FD1E5E7A7
:10524000174B18680022154B1A7062B6104B1B786A
:105250001841BDE8F8832B7813F0FF0FD6D062B663
:1052600001F056FD72B6236813F0800FF3D0E7E724
:105270000020BDE8F8830020BDE8F883C0D9000015
:105280003EE5FF1F00B0034040E5FF1F10B00340A4
:105290003DE5FF1F0CB00B4000B00B403FE5FF1F8A
:1052A00010B00B40024A137813F0010FFBD0704787
:1052B0000100024010B584B01B4B6C461868596859
:1052C0009A68DB680FC4194B1B7813F0020F23D0C8
:1052D000174B1B7813F070031CBF154A1370802204
:1052E000144B1A700022033B1A70332207331A70D2
:1052F0000322013B1A7072B66B4643F001030C4C5B
:105300002046984762B6237813F0700304D02370C8
:1053100008E0013B02D105E0074B04490A7812F08E
:10532000010FF6D004B010BDECD90000010002401E
:105330000000024007000240410D030010B5044682
:10534000B0F5006F0BD2074B1B7813F0010F01D1A2
:10535000FFF7B0FF04F1A0542078C0B210BD0020C8
:1053600010BD00BF0100024038B504460D46B0F53F
:10537000006F16D20B4B1B7813F0010F01D1FFF712
:1053800099FF04F1A0542378DBB2AB4209D0064B5D
:105390001B7813F070031CBF034A13702570FFF7CE
:1053A00081FF38BD0100024000000240024B1A6834
:1053B00001321A60704700BF44E5FF1F08B50D4C6D
:1053C000236813F4802F01D000F012FB236813F43C
:1053D000806F01D001F0E4FF236813F4006F01D067
:1053E00002F090FB236813F4805FE9D002F048FEDE
:1053F000E6E700BF3480044008B5FFF7DFFF00BFD9
:105400001022014B1A80704700200540704700BFF2
:10541000024A1368184410601846704754BFFF1FB3
:10542000FEE700BFEFF31383ABB9EFF31083ABB923
:10543000EFF3058323B10F2B05D9094A985C03E0EC
:105440004FF4807000E00020EFF311833BB1834202
:1054500038BF184670474FF0FF3070470020704744
:10546000F0E300E0704700BF1D4B03EBC000436852
:1054700003F14042A2F592227C2A18D903F140425E
:10548000A2F594227C2A14D903F14042A2F5962277
:105490007C2A10D903F14042A2F598227C2A0CD92B
:1054A00003F14042A2F59A227C2A08D970470D499F
:1054B00006E00D4904E00D4902E00D4900E00D4908
:1054C00072B61A6822F0877222F4803242F080723B
:1054D0001A60C3F38403084A41F8232062B6704778
:1054E000FCD9000058BFFF1F90BFFF1FE0BFFF1F88
:1054F00010C0FF1F30C0FF1F65540000044B002286
:105500001A6004490A60044A106010221A60704749
:1055100014D0034004D0034000D0034021281ED8FB
:105520000F4B53F8303093F8802212F0FF0F08D061
:1055300019B1012283F880207047012283F80021ED
:105540007047074B03EBC000436821B11A6842F073
:1055500003021A6070471A6822F002021A6070474C
:10556000FCD90000212806D8044B53F8303093F8BA
:105570000002C0B270470020704700BFFCD9000095
:1055800021283AD81D4B03EBC0035B68012919D0D1
:10559000042925D0194A52F83020002082F88002D0
:1055A00019B94FF480721A607047022903D140F292
:1055B00003121A60704703290CBF4FF48172002256
:1055C0001A6070470D4A52F83020012182F880128B
:1055D0004FF4A2721A601A6822F020021A60704713
:1055E000064A52F83020012182F880124FF4A2724C
:1055F0001A601A6842F020021A607047FCD9000055
:1056000070B50D46212861D8042A5FD8DFE802F082
:105610000709050B03000B2306E00A2304E0082317
:1056200002E00C2300E009231E04294B03EBC00316
:105630005C68236813F4E06F02D10021FFF7A0FF3C
:10564000244B254AC3F89C21244AC3F8A021244AAC
:10565000C3F8A421234AC3F8A821234AC3F8AC21E4
:1056600004F14043A3F592237C2B18D904F1404266
:10567000A2F594227C2A14D904F14043A3F5962381
:105680007C2B10D904F14043A3F598237C2B0CD933
:1056900004F14043A3F59A237C2B08D970BD13492C
:1056A00006E0134904E0134902E0134900E01349FE
:1056B00072B6236823F470232360C4F3840241F894
:1056C000225043F080731E43266062B670BD00BF57
:1056D000FCD9000000B8FF1F11BEFF1FE5BDFF1F72
:1056E000B9BDFF1F8DBDFF1F61BDFF1F58BFFF1F4D
:1056F00090BFFF1FE0BFFF1F10C0FF1F30C0FF1F84
:1057000072B60C4B1B680C4A12680C49096862B6E9
:1057100011F0806F02D0322B88BF0132C3F5BB334A
:10572000FF330749A1FB03039B094FF47A7000FB89
:105730000230704718E000E044E5FF1F04ED00E090
:10574000ABAAAAAA38B50546FFF7DAFF044625B981
:1057500038BD013D0AD004F57A74FFF7D1FF001B74
:10576000B0F57A7FF5D201F0D3FAF6E738BD00BF85
:1057700010B5264B4FF400021A604FF080721A6089
:105780004FF000721A604FF080621A604FF00062B2
:105790001A6000201E4B18604BF6FF71043319602D
:1057A00028231C4A13600832136008321360083241
:1057B0001360083213600832136008321360083235
:1057C00013600922144C226004F5805404342060D4
:1057D000043421600434236008342360143C2260C4
:1057E00004F5FE24043420600C4801600C490B6071
:1057F00008310B600B4B1A60FFF70AFC4FF4C870BE
:10580000FFF7A0FF00F074FC10BD00BF08E100E04E
:10581000048003400C8003400080034008800B405C
:105820000C800B4000800B4030B40E4B1B7843F0D3
:1058300002020D4C04EBC20460600C4800780028A2
:105840000CBF8824C82444EA0141074D45F83210B2
:1058500080F00100054A107083F00103014A1370C3
:1058600030BC7047B0E5FF1F0080FF1F29E6FF1F17
:1058700010B4431E032B11D872B60A4A52F8230003
:1058800050B14268074941F82320074A32F81340D3
:105890000188611A22F8131062B600E000205DF85A
:1058A000044B7047A0E5FF1F78E8FF1F013803286D
:1058B0000DD872B6074B53F820302BB100200130C1
:1058C0005B68002BFBD100E0002062B6704700202F
:1058D000704700BFF4E5FF1F38B572B601231B49BE
:1058E0001B4C5A1812F8012C12F0080F24D09A0001
:1058F00054F832506DB9164B03EBC20108304860C2
:10590000144943F83210144B1A78013A1A7062B6EF
:1059100038BD42F0010254F832506DB90C4B03EB24
:10592000C201083048600D4943F832100A4B1A781A
:10593000013A1A7062B638BD0133052BD1D162B677
:105940000022054B1A7000F037FC38BD38DB000030
:105950000080FF1F880040001EE6FF1FC8004000B7
:1059600010B4431E032B37D8400140F010001C4AEE
:10597000104472B61B4AD25C032A09D8DFE802F051
:1059800019021B050830022216E00830042213E039
:10599000154A52F823201AB9134A42F8231003E09B
:1059A000124A52F823205160104A42F8231062B67E
:1059B00012E0032200E005220A4CE25401F1080340
:1059C000436000F00803002B0CBF8823C8230A881B
:1059D00043EA0243036062B65DF8044B704700BFC0
:1059E0000080FF1F5CE5FF1FF4E5FF1F04E6FF1FBB
:1059F0002DE9F84FA34CDFF8E092DFF8E0A2DFF8E2
:105A0000E0B22578EDB215F0040F1DD09E4B1B7847
:105A100013F0FF0F16D09D4B1B7803F0FF022BB144
:105A2000531EDBB2994A137003B900BE984B1B7822
:105A300003F0FF0233B1531EDBB2954A13700BB96A
:105A400000F018FD0423237015F0080F00F0E48225
:105A500099F80030DBB21D0940F021828D4D9E087F
:105A600005EBC6035A6855F83630C3F38303013B90
:105A70000C2B00F21082DFE813F0CB01CB010E02F9
:105A80000E020E020E020E020E02E8010E020E02BD
:105A90000E020D00804913680B6052684A607F4A0D
:105AA00045F8362000227E490A607A490A618A61F7
:105AB00001217C4A11709BB240F28162934218D856
:105AC000B3F5D06F2ED2B3F5817F00F01E8106D8DA
:105AD000802B00F0C980822B00F0CC8066E140F280
